{
  "contractName": "MobilityPlatform",
  "abi": [
    {
      "inputs": [],
      "payable": false,
      "stateMutability": "nonpayable",
      "type": "constructor"
    },
    {
      "anonymous": false,
      "inputs": [
        {
          "indexed": false,
          "name": "offerId",
          "type": "uint256"
        },
        {
          "indexed": false,
          "name": "provider",
          "type": "address"
        },
        {
          "indexed": false,
          "name": "pricePerKm",
          "type": "uint256"
        },
        {
          "indexed": false,
          "name": "validUntil",
          "type": "uint256"
        },
        {
          "indexed": false,
          "name": "hashv",
          "type": "string"
        }
      ],
      "name": "ServiceUsageProposed",
      "type": "event"
    },
    {
      "anonymous": false,
      "inputs": [
        {
          "indexed": false,
          "name": "offerId",
          "type": "uint256"
        }
      ],
      "name": "ServiceUsageProposalAccepted",
      "type": "event"
    },
    {
      "anonymous": false,
      "inputs": [
        {
          "indexed": false,
          "name": "offerId",
          "type": "uint256"
        }
      ],
      "name": "ServiceUsageProposalDeclined",
      "type": "event"
    },
    {
      "anonymous": false,
      "inputs": [
        {
          "indexed": false,
          "name": "offerId",
          "type": "uint256"
        },
        {
          "indexed": false,
          "name": "serviceUsageStartTime",
          "type": "uint256"
        },
        {
          "indexed": false,
          "name": "hashv",
          "type": "string"
        }
      ],
      "name": "ServiceUsageStarted",
      "type": "event"
    },
    {
      "anonymous": false,
      "inputs": [
        {
          "indexed": false,
          "name": "offerId",
          "type": "uint256"
        },
        {
          "indexed": false,
          "name": "serviceUsageEndTime",
          "type": "uint256"
        },
        {
          "indexed": false,
          "name": "distanceTravelled",
          "type": "uint256"
        },
        {
          "indexed": false,
          "name": "serviceCost",
          "type": "uint256"
        },
        {
          "indexed": false,
          "name": "hashv",
          "type": "string"
        }
      ],
      "name": "ServiceUsageEnded",
      "type": "event"
    },
    {
      "anonymous": false,
      "inputs": [
        {
          "indexed": false,
          "name": "offerId",
          "type": "uint256"
        },
        {
          "indexed": false,
          "name": "hashv",
          "type": "string"
        }
      ],
      "name": "ServiceUsagePayedUp",
      "type": "event"
    },
    {
      "anonymous": false,
      "inputs": [
        {
          "indexed": false,
          "name": "offerId",
          "type": "uint256"
        }
      ],
      "name": "PaymentFailedDueToUnsufficientFunds",
      "type": "event"
    },
    {
      "anonymous": false,
      "inputs": [
        {
          "indexed": false,
          "name": "offerId",
          "type": "uint256"
        },
        {
          "indexed": false,
          "name": "user",
          "type": "address"
        },
        {
          "indexed": false,
          "name": "acceptingaddress",
          "type": "address"
        },
        {
          "indexed": false,
          "name": "provider",
          "type": "address"
        }
      ],
      "name": "OfferAcceptedForYou",
      "type": "event"
    },
    {
      "anonymous": false,
      "inputs": [
        {
          "indexed": false,
          "name": "offerId",
          "type": "uint256"
        },
        {
          "indexed": false,
          "name": "checkedAddr",
          "type": "address"
        },
        {
          "indexed": false,
          "name": "callingAddr",
          "type": "address"
        },
        {
          "indexed": false,
          "name": "cState",
          "type": "uint8"
        },
        {
          "indexed": false,
          "name": "expCState",
          "type": "uint8"
        }
      ],
      "name": "ContractChangeRejected",
      "type": "event"
    },
    {
      "constant": true,
      "inputs": [
        {
          "name": "offerId",
          "type": "uint256"
        }
      ],
      "name": "getUsageRecord",
      "outputs": [
        {
          "name": "",
          "type": "uint256"
        },
        {
          "name": "",
          "type": "address"
        },
        {
          "name": "",
          "type": "address"
        },
        {
          "name": "",
          "type": "uint256"
        },
        {
          "name": "",
          "type": "uint256"
        },
        {
          "name": "",
          "type": "uint256"
        },
        {
          "name": "",
          "type": "uint256"
        },
        {
          "name": "",
          "type": "uint256"
        },
        {
          "name": "",
          "type": "uint256"
        },
        {
          "name": "",
          "type": "uint8"
        },
        {
          "name": "",
          "type": "string"
        }
      ],
      "payable": false,
      "stateMutability": "view",
      "type": "function"
    },
    {
      "constant": false,
      "inputs": [
        {
          "name": "offerId",
          "type": "uint256"
        },
        {
          "name": "offerValidUntil",
          "type": "uint256"
        },
        {
          "name": "pricePerKm",
          "type": "uint256"
        },
        {
          "name": "user",
          "type": "address"
        }
      ],
      "name": "proposeServiceUsage",
      "outputs": [],
      "payable": false,
      "stateMutability": "nonpayable",
      "type": "function"
    },
    {
      "constant": false,
      "inputs": [
        {
          "name": "offerId",
          "type": "uint256"
        }
      ],
      "name": "acceptProposedOffer",
      "outputs": [],
      "payable": false,
      "stateMutability": "nonpayable",
      "type": "function"
    },
    {
      "constant": false,
      "inputs": [
        {
          "name": "offerId",
          "type": "uint256"
        }
      ],
      "name": "declineProposedOffer",
      "outputs": [],
      "payable": false,
      "stateMutability": "nonpayable",
      "type": "function"
    },
    {
      "constant": false,
      "inputs": [
        {
          "name": "offerId",
          "type": "uint256"
        },
        {
          "name": "serviceUsageStartTime",
          "type": "uint256"
        }
      ],
      "name": "startServiceUsage",
      "outputs": [],
      "payable": false,
      "stateMutability": "nonpayable",
      "type": "function"
    },
    {
      "constant": false,
      "inputs": [
        {
          "name": "offerId",
          "type": "uint256"
        },
        {
          "name": "serviceUsageEndTime",
          "type": "uint256"
        },
        {
          "name": "distanceTravelled",
          "type": "uint256"
        }
      ],
      "name": "finishServiceUsage",
      "outputs": [],
      "payable": false,
      "stateMutability": "nonpayable",
      "type": "function"
    },
    {
      "constant": false,
      "inputs": [
        {
          "name": "balanceBook",
          "type": "address"
        },
        {
          "name": "offerId",
          "type": "uint256"
        }
      ],
      "name": "executePayment",
      "outputs": [],
      "payable": false,
      "stateMutability": "nonpayable",
      "type": "function"
    }
  ],
  "bytecode": "0x608060405234801561001057600080fd5b50611d0b806100206000396000f300608060405260043610610083576000357c0100000000000000000000000000000000000000000000000000000000900463ffffffff16806304bf93af14610088578063304cb0ca146100b55780633556d530146100e257806357b6217c1461012357806393c0ad9b1461015a578063dae53774146102ac578063ef0bba2c1461030d575b600080fd5b34801561009457600080fd5b506100b36004803603810190808035906020019092919050505061035a565b005b3480156100c157600080fd5b506100e060048036038101908080359060200190929190505050610577565b005b3480156100ee57600080fd5b5061012160048036038101908080359060200190929190803590602001909291908035906020019092919050505061097e565b005b34801561012f57600080fd5b506101586004803603810190808035906020019092919080359060200190929190505050610cd3565b005b34801561016657600080fd5b5061018560048036038101908080359060200190929190505050610fb1565b604051808c81526020018b73ffffffffffffffffffffffffffffffffffffffff1673ffffffffffffffffffffffffffffffffffffffff1681526020018a73ffffffffffffffffffffffffffffffffffffffff1673ffffffffffffffffffffffffffffffffffffffff16815260200189815260200188815260200187815260200186815260200185815260200184815260200183600581111561022357fe5b60ff16815260200180602001828103825283818151815260200191508051906020019080838360005b8381101561026757808201518184015260208101905061024c565b50505050905090810190601f1680156102945780820380516001836020036101000a031916815260200191505b509c5050505050505050505050505060405180910390f35b3480156102b857600080fd5b5061030b600480360381019080803590602001909291908035906020019092919080359060200190929190803573ffffffffffffffffffffffffffffffffffffffff16906020019092919050505061120f565b005b34801561031957600080fd5b50610358600480360381019080803573ffffffffffffffffffffffffffffffffffffffff169060200190929190803590602001909291905050506114ff565b005b6000806000915060008084815260200190815260200160002060020160009054906101000a900473ffffffffffffffffffffffffffffffffffffffff1690508160058111156103a557fe5b60008085815260200190815260200160002060090160009054906101000a900460ff1660058111156103d357fe5b14158061040c57503373ffffffffffffffffffffffffffffffffffffffff168173ffffffffffffffffffffffffffffffffffffffff1614155b15610503577f36cf9f7ebcd161a0359b14a35670dda2c76ecd43d54e4380c1a7e64fa1915a1783823360008088815260200190815260200160002060090160009054906101000a900460ff1686604051808681526020018573ffffffffffffffffffffffffffffffffffffffff1673ffffffffffffffffffffffffffffffffffffffff1681526020018473ffffffffffffffffffffffffffffffffffffffff1673ffffffffffffffffffffffffffffffffffffffff1681526020018360058111156104d357fe5b60ff1681526020018260058111156104e757fe5b60ff1681526020019550505050505060405180910390a1610572565b600260008085815260200190815260200160002060090160006101000a81548160ff0219169083600581111561053557fe5b02179055507fc33fe4729d1aacd9a845934cf37da64336f08b494288ec43e44b4777cf2ca435836040518082815260200191505060405180910390a15b505050565b6000806000915060008084815260200190815260200160002060020160009054906101000a900473ffffffffffffffffffffffffffffffffffffffff1690508160058111156105c257fe5b60008085815260200190815260200160002060090160009054906101000a900460ff1660058111156105f057fe5b14158061062957503373ffffffffffffffffffffffffffffffffffffffff168173ffffffffffffffffffffffffffffffffffffffff1614155b15610762577f36cf9f7ebcd161a0359b14a35670dda2c76ecd43d54e4380c1a7e64fa1915a1783823360008088815260200190815260200160002060090160009054906101000a900460ff1686604051808681526020018573ffffffffffffffffffffffffffffffffffffffff1673ffffffffffffffffffffffffffffffffffffffff1681526020018473ffffffffffffffffffffffffffffffffffffffff1673ffffffffffffffffffffffffffffffffffffffff1681526020018360058111156106f057fe5b60ff16815260200182600581111561070457fe5b60ff1681526020019550505050505060405180910390a181600581111561072757fe5b60008085815260200190815260200160002060090160009054906101000a900460ff16600581111561075557fe5b14151561076157610979565b5b3373ffffffffffffffffffffffffffffffffffffffff1660008085815260200190815260200160002060020160009054906101000a900473ffffffffffffffffffffffffffffffffffffffff1673ffffffffffffffffffffffffffffffffffffffff1614151561090a577fd722cfa9c6ea6c5b36da3ea772db6ca844cc92ab60b3c4cc3c9fa12868b9df428360008086815260200190815260200160002060020160009054906101000a900473ffffffffffffffffffffffffffffffffffffffff163360008088815260200190815260200160002060010160009054906101000a900473ffffffffffffffffffffffffffffffffffffffff16604051808581526020018473ffffffffffffffffffffffffffffffffffffffff1673ffffffffffffffffffffffffffffffffffffffff1681526020018373ffffffffffffffffffffffffffffffffffffffff1673ffffffffffffffffffffffffffffffffffffffff1681526020018273ffffffffffffffffffffffffffffffffffffffff1673ffffffffffffffffffffffffffffffffffffffff16815260200194505050505060405180910390a15b600160008085815260200190815260200160002060090160006101000a81548160ff0219169083600581111561093c57fe5b02179055507f2cacf31f4b711cef0a5037eb7d6e30065887ee390b9657416206701bf017ee34836040518082815260200191505060405180910390a15b505050565b60008060006003925060008087815260200190815260200160002060010160009054906101000a900473ffffffffffffffffffffffffffffffffffffffff1691508260058111156109cb57fe5b60008088815260200190815260200160002060090160009054906101000a900460ff1660058111156109f957fe5b141580610a3257503373ffffffffffffffffffffffffffffffffffffffff168273ffffffffffffffffffffffffffffffffffffffff1614155b15610b29577f36cf9f7ebcd161a0359b14a35670dda2c76ecd43d54e4380c1a7e64fa1915a178683336000808b815260200190815260200160002060090160009054906101000a900460ff1687604051808681526020018573ffffffffffffffffffffffffffffffffffffffff1673ffffffffffffffffffffffffffffffffffffffff1681526020018473ffffffffffffffffffffffffffffffffffffffff1673ffffffffffffffffffffffffffffffffffffffff168152602001836005811115610af957fe5b60ff168152602001826005811115610b0d57fe5b60ff1681526020019550505050505060405180910390a1610ccb565b600460008088815260200190815260200160002060090160006101000a81548160ff02191690836005811115610b5b57fe5b021790555084600080888152602001908152602001600020600501819055508360008088815260200190815260200160002060060181905550600080878152602001908152602001600020600701546000808881526020019081526020016000206006015402905080600080888152602001908152602001600020600801819055507f18a769dad965508202f89c55c4da08023a1d11baa7db791b992a10c647930b33868686846000808c8152602001908152602001600020600a016040518086815260200185815260200184815260200183815260200180602001828103825283818154600181600116156101000203166002900481526020019150805460018160011615610100020316600290048015610cb85780601f10610c8d57610100808354040283529160200191610cb8565b820191906000526020600020905b815481529060010190602001808311610c9b57829003601f168201915b5050965050505050505060405180910390a15b505050505050565b6000806001915060008085815260200190815260200160002060010160009054906101000a900473ffffffffffffffffffffffffffffffffffffffff169050816005811115610d1e57fe5b60008086815260200190815260200160002060090160009054906101000a900460ff166005811115610d4c57fe5b141580610d8557503373ffffffffffffffffffffffffffffffffffffffff168173ffffffffffffffffffffffffffffffffffffffff1614155b15610e7c577f36cf9f7ebcd161a0359b14a35670dda2c76ecd43d54e4380c1a7e64fa1915a1784823360008089815260200190815260200160002060090160009054906101000a900460ff1686604051808681526020018573ffffffffffffffffffffffffffffffffffffffff1673ffffffffffffffffffffffffffffffffffffffff1681526020018473ffffffffffffffffffffffffffffffffffffffff1673ffffffffffffffffffffffffffffffffffffffff168152602001836005811115610e4c57fe5b60ff168152602001826005811115610e6057fe5b60ff1681526020019550505050505060405180910390a1610fab565b600360008086815260200190815260200160002060090160006101000a81548160ff02191690836005811115610eae57fe5b021790555082600080868152602001908152602001600020600401819055507f9193931fa5a3e3159fad1f0107304f3fa0bf3e382b0b2472c7ae2920a491e4d38484600080888152602001908152602001600020600a016040518084815260200183815260200180602001828103825283818154600181600116156101000203166002900481526020019150805460018160011615610100020316600290048015610f9a5780601f10610f6f57610100808354040283529160200191610f9a565b820191906000526020600020905b815481529060010190602001808311610f7d57829003601f168201915b505094505050505060405180910390a15b50505050565b6000806000806000806000806000806060610fca611b60565b6000808e81526020019081526020016000206101606040519081016040529081600082015481526020016001820160009054906101000a900473ffffffffffffffffffffffffffffffffffffffff1673ffffffffffffffffffffffffffffffffffffffff1673ffffffffffffffffffffffffffffffffffffffff1681526020016002820160009054906101000a900473ffffffffffffffffffffffffffffffffffffffff1673ffffffffffffffffffffffffffffffffffffffff1673ffffffffffffffffffffffffffffffffffffffff1681526020016003820154815260200160048201548152602001600582015481526020016006820154815260200160078201548152602001600882015481526020016009820160009054906101000a900460ff1660058111156110f957fe5b600581111561110457fe5b8152602001600a82018054600181600116156101000203166002900480601f0160208091040260200160405190810160405280929190818152602001828054600181600116156101000203166002900480156111a15780601f10611176576101008083540402835291602001916111a1565b820191906000526020600020905b81548152906001019060200180831161118457829003601f168201915b5050505050815250509050806000015181602001518260400151836060015184608001518560a001518660c001518760e001518861010001518961012001518a61014001518090509b509b509b509b509b509b509b509b509b509b509b505091939597999b90929496989a50565b6000339050610160604051908101604052808681526020018273ffffffffffffffffffffffffffffffffffffffff1681526020018373ffffffffffffffffffffffffffffffffffffffff168152602001858152602001600081526020016000815260200184815260200160008152602001600081526020016000600581111561129457fe5b815260200160206040519081016040528060008152508152506000808781526020019081526020016000206000820151816000015560208201518160010160006101000a81548173ffffffffffffffffffffffffffffffffffffffff021916908373ffffffffffffffffffffffffffffffffffffffff16021790555060408201518160020160006101000a81548173ffffffffffffffffffffffffffffffffffffffff021916908373ffffffffffffffffffffffffffffffffffffffff160217905550606082015181600301556080820151816004015560a0820151816005015560c0820151816006015560e0820151816007015561010082015181600801556101208201518160090160006101000a81548160ff021916908360058111156113b957fe5b021790555061014082015181600a0190805190602001906113db929190611bf2565b509050507f4417acf5a11364eb84c530f6ab2810e948e5a200f115b561cd51d8f62e564d35858285876000808b8152602001908152602001600020600a01604051808681526020018573ffffffffffffffffffffffffffffffffffffffff1673ffffffffffffffffffffffffffffffffffffffff168152602001848152602001838152602001806020018281038252838181546001816001161561010002031660029004815260200191508054600181600116156101000203166002900480156114e65780601f106114bb576101008083540402835291602001916114e6565b820191906000526020600020905b8154815290600101906020018083116114c957829003601f168201915b5050965050505050505060405180910390a15050505050565b60008060006004925060008085815260200190815260200160002060010160009054906101000a900473ffffffffffffffffffffffffffffffffffffffff16915082600581111561154c57fe5b60008086815260200190815260200160002060090160009054906101000a900460ff16600581111561157a57fe5b1415806115b357503373ffffffffffffffffffffffffffffffffffffffff168273ffffffffffffffffffffffffffffffffffffffff1614155b156116aa577f36cf9f7ebcd161a0359b14a35670dda2c76ecd43d54e4380c1a7e64fa1915a1784833360008089815260200190815260200160002060090160009054906101000a900460ff1687604051808681526020018573ffffffffffffffffffffffffffffffffffffffff1673ffffffffffffffffffffffffffffffffffffffff1681526020018473ffffffffffffffffffffffffffffffffffffffff1673ffffffffffffffffffffffffffffffffffffffff16815260200183600581111561167a57fe5b60ff16815260200182600581111561168e57fe5b60ff1681526020019550505050505060405180910390a1611b59565b600080858152602001908152602001600020600801549050808573ffffffffffffffffffffffffffffffffffffffff166370a0823160008088815260200190815260200160002060020160009054906101000a900473ffffffffffffffffffffffffffffffffffffffff166040518263ffffffff167c0100000000000000000000000000000000000000000000000000000000028152600401808273ffffffffffffffffffffffffffffffffffffffff1673ffffffffffffffffffffffffffffffffffffffff168152602001915050602060405180830381600087803b15801561179357600080fd5b505af11580156117a7573d6000803e3d6000fd5b505050506040513d60208110156117bd57600080fd5b81019080805190602001909291905050501015611810577fbecfcb276c2bd23fc334482e947146369543ad085b3c4dd4031b33570ae8c27a846040518082815260200191505060405180910390a1611b59565b8473ffffffffffffffffffffffffffffffffffffffff166323b872dd60008087815260200190815260200160002060020160009054906101000a900473ffffffffffffffffffffffffffffffffffffffff1660008088815260200190815260200160002060010160009054906101000a900473ffffffffffffffffffffffffffffffffffffffff16846040518463ffffffff167c0100000000000000000000000000000000000000000000000000000000028152600401808473ffffffffffffffffffffffffffffffffffffffff1673ffffffffffffffffffffffffffffffffffffffff1681526020018373ffffffffffffffffffffffffffffffffffffffff1673ffffffffffffffffffffffffffffffffffffffff1681526020018281526020019350505050602060405180830381600087803b15801561195157600080fd5b505af1158015611965573d6000803e3d6000fd5b505050506040513d602081101561197b57600080fd5b810190808051906020019092919050505050600560008086815260200190815260200160002060090160006101000a81548160ff021916908360058111156119bf57fe5b02179055507f89b18861f4686dc97f69ec1b09ed387ece5f182299d9fdeab95d50a88f40cb7384600080878152602001908152602001600020600a016040518083815260200180602001828103825283818154600181600116156101000203166002900481526020019150805460018160011615610100020316600290048015611a8a5780601f10611a5f57610100808354040283529160200191611a8a565b820191906000526020600020905b815481529060010190602001808311611a6d57829003601f168201915b5050935050505060405180910390a16000808581526020019081526020016000206000808201600090556001820160006101000a81549073ffffffffffffffffffffffffffffffffffffffff02191690556002820160006101000a81549073ffffffffffffffffffffffffffffffffffffffff02191690556003820160009055600482016000905560058201600090556006820160009055600782016000905560088201600090556009820160006101000a81549060ff0219169055600a82016000611b569190611c72565b50505b5050505050565b6101606040519081016040528060008152602001600073ffffffffffffffffffffffffffffffffffffffff168152602001600073ffffffffffffffffffffffffffffffffffffffff16815260200160008152602001600081526020016000815260200160008152602001600081526020016000815260200160006005811115611be557fe5b8152602001606081525090565b828054600181600116156101000203166002900490600052602060002090601f016020900481019282601f10611c3357805160ff1916838001178555611c61565b82800160010185558215611c61579182015b82811115611c60578251825591602001919060010190611c45565b5b509050611c6e9190611cba565b5090565b50805460018160011615610100020316600290046000825580601f10611c985750611cb7565b601f016020900490600052602060002090810190611cb69190611cba565b5b50565b611cdc91905b80821115611cd8576000816000905550600101611cc0565b5090565b905600a165627a7a72305820a30f0dc715bf9dc4bbe1341c86fd5a1b11d9c2a153bbba87a4f10dc9735919ee0029",
  "source": "pragma solidity ^0.4.23;\n\nimport \"./erc20/ERC20.sol\";\n\ncontract MobilityPlatform {\n\n    enum Status { OfferProposed, OfferAccepted, OfferDeclined, UsageStarted, UsageEnded, Paid }\n\n    constructor() public {}\n\n    struct UsageRecord {\n        uint offerId;\n        address provider;\n        address user;\n        uint offerValidUntil;\n        uint serviceUsageStartTime;\n        uint serviceUsageEndTime;\n        uint distanceTravelled;\n        uint pricePerKm;\n        uint totalPrice;\n        Status status;\n        string hashv;\n    }\n\n    mapping(uint => UsageRecord) usageRecords;\n\n    function getUsageRecord(uint offerId) public view returns\n    (uint, address, address, uint, uint, uint, uint, uint, uint, Status, string) {\n        UsageRecord memory rec = usageRecords[offerId];\n\n        return (rec.offerId, rec.provider, rec.user, rec.offerValidUntil, rec.serviceUsageStartTime, rec.serviceUsageEndTime,\n        rec.distanceTravelled, rec.pricePerKm, rec.totalPrice, rec.status, rec.hashv);\n    }\n\n    function proposeServiceUsage(uint offerId, uint offerValidUntil, uint pricePerKm, address user) public {\n        address provider = msg.sender;\n        usageRecords[offerId] = UsageRecord(offerId, provider, user, offerValidUntil, 0, 0, pricePerKm, 0, 0, Status.OfferProposed, \"\");\n//        usageRecords[offerId].hashv = keccak256(usageRecords[offerId]));\n\n        emit ServiceUsageProposed(offerId, provider, pricePerKm, offerValidUntil, usageRecords[offerId].hashv);\n    }\n\n    // backend has to call approve(address MobilityPlatformAddress, uint256 MaxAllowedAmountToBeSpend)\n    function acceptProposedOffer(uint offerId) public {\n        Status expectedStatus = Status.OfferProposed;\n        address checkedAddress = usageRecords[offerId].user;\n        if (usageRecords[offerId].status != expectedStatus || checkedAddress != msg.sender) {\n            emit ContractChangeRejected(offerId, checkedAddress, msg.sender, usageRecords[offerId].status, expectedStatus);\n\n            // actually offer shall be rejected, but for test purposes we are accepting it, that's why in case\n            // the contact status is correct the processing is continued\n            if (usageRecords[offerId].status != expectedStatus) {\n                return;\n            }\n        }\n\n        if (usageRecords[offerId].user != msg.sender) {\n            emit OfferAcceptedForYou(offerId, usageRecords[offerId].user, msg.sender, usageRecords[offerId].provider);\n        }\n\n\n        usageRecords[offerId].status = Status.OfferAccepted;\n\n        emit ServiceUsageProposalAccepted(offerId);\n    }\n\n    function declineProposedOffer(uint offerId) public {\n        Status expectedStatus = Status.OfferProposed;\n        address checkedAddress = usageRecords[offerId].user;\n        if (usageRecords[offerId].status != expectedStatus || checkedAddress != msg.sender) {\n            emit ContractChangeRejected(offerId, checkedAddress, msg.sender, usageRecords[offerId].status, expectedStatus);\n            return;\n        }\n\n        usageRecords[offerId].status = Status.OfferDeclined;\n\n        emit ServiceUsageProposalDeclined(offerId);\n    }\n\n    function startServiceUsage(uint offerId, uint serviceUsageStartTime) public {\n        Status expectedStatus = Status.OfferAccepted;\n        address checkedAddress = usageRecords[offerId].provider;\n        if (usageRecords[offerId].status != expectedStatus || checkedAddress != msg.sender) {\n            emit ContractChangeRejected(offerId, checkedAddress, msg.sender, usageRecords[offerId].status, expectedStatus);\n            return;\n        }\n\n\n        usageRecords[offerId].status = Status.UsageStarted;\n        usageRecords[offerId].serviceUsageStartTime = serviceUsageStartTime;\n  //      usageRecords[offerId].hashv = keccak256(usageRecords[offerId]);\n\n        emit ServiceUsageStarted(offerId, serviceUsageStartTime, usageRecords[offerId].hashv);\n    }\n\n    function finishServiceUsage(uint offerId, uint serviceUsageEndTime, uint distanceTravelled) public {\n        Status expectedStatus = Status.UsageStarted;\n        address checkedAddress = usageRecords[offerId].provider;\n        if (usageRecords[offerId].status != expectedStatus || checkedAddress != msg.sender) {\n            emit ContractChangeRejected(offerId, checkedAddress, msg.sender, usageRecords[offerId].status, expectedStatus);\n            return;\n        }\n\n        usageRecords[offerId].status = Status.UsageEnded;\n        usageRecords[offerId].serviceUsageEndTime = serviceUsageEndTime;\n        usageRecords[offerId].distanceTravelled = distanceTravelled;\n//        usageRecords[offerId].hashv = keccak256(usageRecords[offerId]);\n\n        uint totalPrice = usageRecords[offerId].distanceTravelled * usageRecords[offerId].pricePerKm;\n        usageRecords[offerId].totalPrice = totalPrice;\n        emit ServiceUsageEnded(offerId, serviceUsageEndTime, distanceTravelled, totalPrice, usageRecords[offerId].hashv);\n    }\n\n    function executePayment(ERC20 balanceBook, uint offerId) public {\n        Status expectedStatus = Status.UsageEnded;\n        address checkedAddress = usageRecords[offerId].provider;\n        if (usageRecords[offerId].status != expectedStatus || checkedAddress != msg.sender) {\n            emit ContractChangeRejected(offerId, checkedAddress, msg.sender, usageRecords[offerId].status, expectedStatus);\n            return;\n        }\n\n        uint price = usageRecords[offerId].totalPrice;\n\n        if (balanceBook.balanceOf(usageRecords[offerId].user) < price) {\n            emit PaymentFailedDueToUnsufficientFunds(offerId);\n            return;\n        }\n\n        balanceBook.transferFrom(usageRecords[offerId].user, usageRecords[offerId].provider, price);\n\n        usageRecords[offerId].status = Status.Paid;\n//        usageRecords[offerId].hashv = keccak256(usageRecords[offerId]);\n\n        emit ServiceUsagePayedUp(offerId, usageRecords[offerId].hashv);\n\n        delete usageRecords[offerId];\n    }\n\n /*\n    modifier verifyCall(uint offerId, address checkedAddr, Status expectedStatus) {\n        address checkedAddress = usageRecords[offerId].provider;\n        if (usageRecords[offerId].status != expectedStatus || checkedAddress != msg.sender) {\n            emit ContractChangeRejected(offerId, checkedAddress, msg.sender, usageRecords[offerId].status, expectedStatus);\n            return;\n        }\n        _;\n    }\n*/\n    event ServiceUsageProposed(uint offerId, address provider, uint pricePerKm, uint validUntil, string hashv);\n    event ServiceUsageProposalAccepted(uint offerId);\n    event ServiceUsageProposalDeclined(uint offerId);\n    event ServiceUsageStarted(uint offerId, uint serviceUsageStartTime, string hashv);\n    event ServiceUsageEnded(uint offerId, uint serviceUsageEndTime, uint distanceTravelled, uint serviceCost, string hashv);\n    event ServiceUsagePayedUp(uint offerId, string hashv);\n    event PaymentFailedDueToUnsufficientFunds(uint offerId);\n\n    // warning events\n    event OfferAcceptedForYou(uint offerId, address user, address acceptingaddress, address provider);\n\n    // error events\n    event ContractChangeRejected(uint offerId, address checkedAddr, address callingAddr, Status cState, Status expCState);\n}\n",
  "sourcePath": "/Users/rafal/Projects/404-name-not-found/backend/contracts/MobilityPlatform.sol",
  "compiler": {
    "name": "solc",
    "version": "0.4.24+commit.e67f0147.Emscripten.clang"
  },
  "schemaVersion": "2.0.1",
  "updatedAt": "2018-07-22T10:04:35.131Z"
}