{
  "contractName": "MobilityPlatform",
  "abi": [
    {
      "inputs": [
        {
          "name": "token",
          "type": "address"
        }
      ],
      "payable": false,
      "stateMutability": "nonpayable",
      "type": "constructor"
    },
    {
      "anonymous": false,
      "inputs": [
        {
          "indexed": false,
          "name": "offerId",
          "type": "uint256"
        },
        {
          "indexed": false,
          "name": "provider",
          "type": "address"
        },
        {
          "indexed": false,
          "name": "pricePerKm",
          "type": "uint256"
        },
        {
          "indexed": false,
          "name": "validUntil",
          "type": "uint256"
        },
        {
          "indexed": false,
          "name": "hashv",
          "type": "string"
        }
      ],
      "name": "ServiceUsageProposed",
      "type": "event"
    },
    {
      "anonymous": false,
      "inputs": [
        {
          "indexed": false,
          "name": "offerId",
          "type": "uint256"
        }
      ],
      "name": "ServiceUsageProposalAccepted",
      "type": "event"
    },
    {
      "anonymous": false,
      "inputs": [
        {
          "indexed": false,
          "name": "offerId",
          "type": "uint256"
        }
      ],
      "name": "ServiceUsageProposalDeclined",
      "type": "event"
    },
    {
      "anonymous": false,
      "inputs": [
        {
          "indexed": false,
          "name": "offerId",
          "type": "uint256"
        },
        {
          "indexed": false,
          "name": "serviceUsageStartTime",
          "type": "uint256"
        },
        {
          "indexed": false,
          "name": "hashv",
          "type": "string"
        }
      ],
      "name": "ServiceUsageStarted",
      "type": "event"
    },
    {
      "anonymous": false,
      "inputs": [
        {
          "indexed": false,
          "name": "offerId",
          "type": "uint256"
        },
        {
          "indexed": false,
          "name": "serviceUsageEndTime",
          "type": "uint256"
        },
        {
          "indexed": false,
          "name": "distanceTravelled",
          "type": "uint256"
        },
        {
          "indexed": false,
          "name": "serviceCost",
          "type": "uint256"
        },
        {
          "indexed": false,
          "name": "hashv",
          "type": "string"
        }
      ],
      "name": "ServiceUsageEnded",
      "type": "event"
    },
    {
      "anonymous": false,
      "inputs": [
        {
          "indexed": false,
          "name": "offerId",
          "type": "uint256"
        },
        {
          "indexed": false,
          "name": "hashv",
          "type": "string"
        }
      ],
      "name": "ServiceUsagePayedUp",
      "type": "event"
    },
    {
      "anonymous": false,
      "inputs": [
        {
          "indexed": false,
          "name": "offerId",
          "type": "uint256"
        }
      ],
      "name": "PaymentFailedDueToUnsufficientFunds",
      "type": "event"
    },
    {
      "anonymous": false,
      "inputs": [
        {
          "indexed": false,
          "name": "offerId",
          "type": "uint256"
        },
        {
          "indexed": false,
          "name": "user",
          "type": "address"
        },
        {
          "indexed": false,
          "name": "acceptingaddress",
          "type": "address"
        },
        {
          "indexed": false,
          "name": "provider",
          "type": "address"
        }
      ],
      "name": "OfferAcceptedForYou",
      "type": "event"
    },
    {
      "anonymous": false,
      "inputs": [
        {
          "indexed": false,
          "name": "offerId",
          "type": "uint256"
        },
        {
          "indexed": false,
          "name": "checkedAddr",
          "type": "address"
        },
        {
          "indexed": false,
          "name": "callingAddr",
          "type": "address"
        },
        {
          "indexed": false,
          "name": "cState",
          "type": "uint8"
        },
        {
          "indexed": false,
          "name": "expCState",
          "type": "uint8"
        }
      ],
      "name": "ContractChangeRejected",
      "type": "event"
    },
    {
      "constant": true,
      "inputs": [
        {
          "name": "offerId",
          "type": "uint256"
        }
      ],
      "name": "getUsageRecord",
      "outputs": [
        {
          "name": "",
          "type": "uint256"
        },
        {
          "name": "",
          "type": "address"
        },
        {
          "name": "",
          "type": "address"
        },
        {
          "name": "",
          "type": "uint256"
        },
        {
          "name": "",
          "type": "uint256"
        },
        {
          "name": "",
          "type": "uint256"
        },
        {
          "name": "",
          "type": "uint256"
        },
        {
          "name": "",
          "type": "uint256"
        },
        {
          "name": "",
          "type": "uint256"
        },
        {
          "name": "",
          "type": "uint8"
        },
        {
          "name": "",
          "type": "string"
        }
      ],
      "payable": false,
      "stateMutability": "view",
      "type": "function"
    },
    {
      "constant": false,
      "inputs": [
        {
          "name": "offerId",
          "type": "uint256"
        },
        {
          "name": "offerValidUntil",
          "type": "uint256"
        },
        {
          "name": "pricePerKm",
          "type": "uint256"
        },
        {
          "name": "user",
          "type": "address"
        }
      ],
      "name": "proposeServiceUsage",
      "outputs": [],
      "payable": false,
      "stateMutability": "nonpayable",
      "type": "function"
    },
    {
      "constant": false,
      "inputs": [
        {
          "name": "offerId",
          "type": "uint256"
        }
      ],
      "name": "acceptProposedOffer",
      "outputs": [],
      "payable": false,
      "stateMutability": "nonpayable",
      "type": "function"
    },
    {
      "constant": false,
      "inputs": [
        {
          "name": "offerId",
          "type": "uint256"
        }
      ],
      "name": "declineProposedOffer",
      "outputs": [],
      "payable": false,
      "stateMutability": "nonpayable",
      "type": "function"
    },
    {
      "constant": false,
      "inputs": [
        {
          "name": "offerId",
          "type": "uint256"
        },
        {
          "name": "serviceUsageStartTime",
          "type": "uint256"
        }
      ],
      "name": "startServiceUsage",
      "outputs": [],
      "payable": false,
      "stateMutability": "nonpayable",
      "type": "function"
    },
    {
      "constant": false,
      "inputs": [
        {
          "name": "offerId",
          "type": "uint256"
        },
        {
          "name": "serviceUsageEndTime",
          "type": "uint256"
        },
        {
          "name": "distanceTravelled",
          "type": "uint256"
        }
      ],
      "name": "finishServiceUsage",
      "outputs": [],
      "payable": false,
      "stateMutability": "nonpayable",
      "type": "function"
    },
    {
      "constant": false,
      "inputs": [
        {
          "name": "offerId",
          "type": "uint256"
        }
      ],
      "name": "executePayment",
      "outputs": [],
      "payable": false,
      "stateMutability": "nonpayable",
      "type": "function"
    }
  ],
  "bytecode": "0x608060405234801561001057600080fd5b50604051602080611de083398101806040528101908080519060200190929190505050806000806101000a81548173ffffffffffffffffffffffffffffffffffffffff021916908373ffffffffffffffffffffffffffffffffffffffff16021790555050611d5d806100836000396000f300608060405260043610610083576000357c0100000000000000000000000000000000000000000000000000000000900463ffffffff16806304bf93af14610088578063162a0cf8146100b5578063304cb0ca146100e25780633556d5301461010f57806357b6217c1461015057806393c0ad9b14610187578063dae53774146102d9575b600080fd5b34801561009457600080fd5b506100b36004803603810190808035906020019092919050505061033a565b005b3480156100c157600080fd5b506100e06004803603810190808035906020019092919050505061055b565b005b3480156100ee57600080fd5b5061010d60048036038101908080359060200190929190505050610c07565b005b34801561011b57600080fd5b5061014e600480360381019080803590602001909291908035906020019092919080359060200190929190505050611015565b005b34801561015c57600080fd5b50610185600480360381019080803590602001909291908035906020019092919050505061137d565b005b34801561019357600080fd5b506101b260048036038101908080359060200190929190505050611661565b604051808c81526020018b73ffffffffffffffffffffffffffffffffffffffff1673ffffffffffffffffffffffffffffffffffffffff1681526020018a73ffffffffffffffffffffffffffffffffffffffff1673ffffffffffffffffffffffffffffffffffffffff16815260200189815260200188815260200187815260200186815260200185815260200184815260200183600581111561025057fe5b60ff16815260200180602001828103825283818151815260200191508051906020019080838360005b83811015610294578082015181840152602081019050610279565b50505050905090810190601f1680156102c15780820380516001836020036101000a031916815260200191505b509c5050505050505050505050505060405180910390f35b3480156102e557600080fd5b50610338600480360381019080803590602001909291908035906020019092919080359060200190929190803573ffffffffffffffffffffffffffffffffffffffff1690602001909291905050506118c0565b005b600080600091506001600084815260200190815260200160002060020160009054906101000a900473ffffffffffffffffffffffffffffffffffffffff16905081600581111561038657fe5b6001600085815260200190815260200160002060090160009054906101000a900460ff1660058111156103b557fe5b1415806103ee57503373ffffffffffffffffffffffffffffffffffffffff168173ffffffffffffffffffffffffffffffffffffffff1614155b156104e6577f36cf9f7ebcd161a0359b14a35670dda2c76ecd43d54e4380c1a7e64fa1915a178382336001600088815260200190815260200160002060090160009054906101000a900460ff1686604051808681526020018573ffffffffffffffffffffffffffffffffffffffff1673ffffffffffffffffffffffffffffffffffffffff1681526020018473ffffffffffffffffffffffffffffffffffffffff1673ffffffffffffffffffffffffffffffffffffffff1681526020018360058111156104b657fe5b60ff1681526020018260058111156104ca57fe5b60ff1681526020019550505050505060405180910390a1610556565b60026001600085815260200190815260200160002060090160006101000a81548160ff0219169083600581111561051957fe5b02179055507fc33fe4729d1aacd9a845934cf37da64336f08b494288ec43e44b4777cf2ca435836040518082815260200191505060405180910390a15b505050565b6000806000600492506001600085815260200190815260200160002060010160009054906101000a900473ffffffffffffffffffffffffffffffffffffffff1691508260058111156105a957fe5b6001600086815260200190815260200160002060090160009054906101000a900460ff1660058111156105d857fe5b14158061061157503373ffffffffffffffffffffffffffffffffffffffff168273ffffffffffffffffffffffffffffffffffffffff1614155b15610709577f36cf9f7ebcd161a0359b14a35670dda2c76ecd43d54e4380c1a7e64fa1915a178483336001600089815260200190815260200160002060090160009054906101000a900460ff1687604051808681526020018573ffffffffffffffffffffffffffffffffffffffff1673ffffffffffffffffffffffffffffffffffffffff1681526020018473ffffffffffffffffffffffffffffffffffffffff1673ffffffffffffffffffffffffffffffffffffffff1681526020018360058111156106d957fe5b60ff1681526020018260058111156106ed57fe5b60ff1681526020019550505050505060405180910390a1610c01565b60016000858152602001908152602001600020600801549050806000809054906101000a900473ffffffffffffffffffffffffffffffffffffffff1673ffffffffffffffffffffffffffffffffffffffff166370a082316001600088815260200190815260200160002060020160009054906101000a900473ffffffffffffffffffffffffffffffffffffffff166040518263ffffffff167c0100000000000000000000000000000000000000000000000000000000028152600401808273ffffffffffffffffffffffffffffffffffffffff1673ffffffffffffffffffffffffffffffffffffffff168152602001915050602060405180830381600087803b15801561081557600080fd5b505af1158015610829573d6000803e3d6000fd5b505050506040513d602081101561083f57600080fd5b81019080805190602001909291905050501015610892577fbecfcb276c2bd23fc334482e947146369543ad085b3c4dd4031b33570ae8c27a846040518082815260200191505060405180910390a1610c01565b6000809054906101000a900473ffffffffffffffffffffffffffffffffffffffff1673ffffffffffffffffffffffffffffffffffffffff166323b872dd6001600087815260200190815260200160002060020160009054906101000a900473ffffffffffffffffffffffffffffffffffffffff166001600088815260200190815260200160002060010160009054906101000a900473ffffffffffffffffffffffffffffffffffffffff16846040518463ffffffff167c0100000000000000000000000000000000000000000000000000000000028152600401808473ffffffffffffffffffffffffffffffffffffffff1673ffffffffffffffffffffffffffffffffffffffff1681526020018373ffffffffffffffffffffffffffffffffffffffff1673ffffffffffffffffffffffffffffffffffffffff1681526020018281526020019350505050602060405180830381600087803b1580156109f657600080fd5b505af1158015610a0a573d6000803e3d6000fd5b505050506040513d6020811015610a2057600080fd5b81019080805190602001909291905050505060056001600086815260200190815260200160002060090160006101000a81548160ff02191690836005811115610a6557fe5b02179055507f89b18861f4686dc97f69ec1b09ed387ece5f182299d9fdeab95d50a88f40cb738460016000878152602001908152602001600020600a016040518083815260200180602001828103825283818154600181600116156101000203166002900481526020019150805460018160011615610100020316600290048015610b315780601f10610b0657610100808354040283529160200191610b31565b820191906000526020600020905b815481529060010190602001808311610b1457829003601f168201915b5050935050505060405180910390a1600160008581526020019081526020016000206000808201600090556001820160006101000a81549073ffffffffffffffffffffffffffffffffffffffff02191690556002820160006101000a81549073ffffffffffffffffffffffffffffffffffffffff02191690556003820160009055600482016000905560058201600090556006820160009055600782016000905560088201600090556009820160006101000a81549060ff0219169055600a82016000610bfe9190611bb2565b50505b50505050565b600080600091506001600084815260200190815260200160002060020160009054906101000a900473ffffffffffffffffffffffffffffffffffffffff169050816005811115610c5357fe5b6001600085815260200190815260200160002060090160009054906101000a900460ff166005811115610c8257fe5b141580610cbb57503373ffffffffffffffffffffffffffffffffffffffff168173ffffffffffffffffffffffffffffffffffffffff1614155b15610df6577f36cf9f7ebcd161a0359b14a35670dda2c76ecd43d54e4380c1a7e64fa1915a178382336001600088815260200190815260200160002060090160009054906101000a900460ff1686604051808681526020018573ffffffffffffffffffffffffffffffffffffffff1673ffffffffffffffffffffffffffffffffffffffff1681526020018473ffffffffffffffffffffffffffffffffffffffff1673ffffffffffffffffffffffffffffffffffffffff168152602001836005811115610d8357fe5b60ff168152602001826005811115610d9757fe5b60ff1681526020019550505050505060405180910390a1816005811115610dba57fe5b6001600085815260200190815260200160002060090160009054906101000a900460ff166005811115610de957fe5b141515610df557611010565b5b3373ffffffffffffffffffffffffffffffffffffffff166001600085815260200190815260200160002060020160009054906101000a900473ffffffffffffffffffffffffffffffffffffffff1673ffffffffffffffffffffffffffffffffffffffff16141515610fa1577fd722cfa9c6ea6c5b36da3ea772db6ca844cc92ab60b3c4cc3c9fa12868b9df42836001600086815260200190815260200160002060020160009054906101000a900473ffffffffffffffffffffffffffffffffffffffff16336001600088815260200190815260200160002060010160009054906101000a900473ffffffffffffffffffffffffffffffffffffffff16604051808581526020018473ffffffffffffffffffffffffffffffffffffffff1673ffffffffffffffffffffffffffffffffffffffff1681526020018373ffffffffffffffffffffffffffffffffffffffff1673ffffffffffffffffffffffffffffffffffffffff1681526020018273ffffffffffffffffffffffffffffffffffffffff1673ffffffffffffffffffffffffffffffffffffffff16815260200194505050505060405180910390a15b600180600085815260200190815260200160002060090160006101000a81548160ff02191690836005811115610fd357fe5b02179055507f2cacf31f4b711cef0a5037eb7d6e30065887ee390b9657416206701bf017ee34836040518082815260200191505060405180910390a15b505050565b6000806000600392506001600087815260200190815260200160002060010160009054906101000a900473ffffffffffffffffffffffffffffffffffffffff16915082600581111561106357fe5b6001600088815260200190815260200160002060090160009054906101000a900460ff16600581111561109257fe5b1415806110cb57503373ffffffffffffffffffffffffffffffffffffffff168273ffffffffffffffffffffffffffffffffffffffff1614155b156111c3577f36cf9f7ebcd161a0359b14a35670dda2c76ecd43d54e4380c1a7e64fa1915a17868333600160008b815260200190815260200160002060090160009054906101000a900460ff1687604051808681526020018573ffffffffffffffffffffffffffffffffffffffff1673ffffffffffffffffffffffffffffffffffffffff1681526020018473ffffffffffffffffffffffffffffffffffffffff1673ffffffffffffffffffffffffffffffffffffffff16815260200183600581111561119357fe5b60ff1681526020018260058111156111a757fe5b60ff1681526020019550505050505060405180910390a1611375565b60046001600088815260200190815260200160002060090160006101000a81548160ff021916908360058111156111f657fe5b0217905550846001600088815260200190815260200160002060050181905550836001600088815260200190815260200160002060060181905550600160008781526020019081526020016000206007015460016000888152602001908152602001600020600601540290508060016000888152602001908152602001600020600801819055507f18a769dad965508202f89c55c4da08023a1d11baa7db791b992a10c647930b3386868684600160008c8152602001908152602001600020600a0160405180868152602001858152602001848152602001838152602001806020018281038252838181546001816001161561010002031660029004815260200191508054600181600116156101000203166002900480156113595780601f1061132e57610100808354040283529160200191611359565b820191906000526020600020905b81548152906001019060200180831161133c57829003601f168201915b5050965050505050505060405180910390a16113748661055b565b5b505050505050565b600080600191506001600085815260200190815260200160002060010160009054906101000a900473ffffffffffffffffffffffffffffffffffffffff1690508160058111156113c957fe5b6001600086815260200190815260200160002060090160009054906101000a900460ff1660058111156113f857fe5b14158061143157503373ffffffffffffffffffffffffffffffffffffffff168173ffffffffffffffffffffffffffffffffffffffff1614155b15611529577f36cf9f7ebcd161a0359b14a35670dda2c76ecd43d54e4380c1a7e64fa1915a178482336001600089815260200190815260200160002060090160009054906101000a900460ff1686604051808681526020018573ffffffffffffffffffffffffffffffffffffffff1673ffffffffffffffffffffffffffffffffffffffff1681526020018473ffffffffffffffffffffffffffffffffffffffff1673ffffffffffffffffffffffffffffffffffffffff1681526020018360058111156114f957fe5b60ff16815260200182600581111561150d57fe5b60ff1681526020019550505050505060405180910390a161165b565b60036001600086815260200190815260200160002060090160006101000a81548160ff0219169083600581111561155c57fe5b02179055508260016000868152602001908152602001600020600401819055507f9193931fa5a3e3159fad1f0107304f3fa0bf3e382b0b2472c7ae2920a491e4d3848460016000888152602001908152602001600020600a01604051808481526020018381526020018060200182810382528381815460018160011615610100020316600290048152602001915080546001816001161561010002031660029004801561164a5780601f1061161f5761010080835404028352916020019161164a565b820191906000526020600020905b81548152906001019060200180831161162d57829003601f168201915b505094505050505060405180910390a15b50505050565b600080600080600080600080600080606061167a611bfa565b600160008e81526020019081526020016000206101606040519081016040529081600082015481526020016001820160009054906101000a900473ffffffffffffffffffffffffffffffffffffffff1673ffffffffffffffffffffffffffffffffffffffff1673ffffffffffffffffffffffffffffffffffffffff1681526020016002820160009054906101000a900473ffffffffffffffffffffffffffffffffffffffff1673ffffffffffffffffffffffffffffffffffffffff1673ffffffffffffffffffffffffffffffffffffffff1681526020016003820154815260200160048201548152602001600582015481526020016006820154815260200160078201548152602001600882015481526020016009820160009054906101000a900460ff1660058111156117aa57fe5b60058111156117b557fe5b8152602001600a82018054600181600116156101000203166002900480601f0160208091040260200160405190810160405280929190818152602001828054600181600116156101000203166002900480156118525780601f1061182757610100808354040283529160200191611852565b820191906000526020600020905b81548152906001019060200180831161183557829003601f168201915b5050505050815250509050806000015181602001518260400151836060015184608001518560a001518660c001518760e001518861010001518961012001518a61014001518090509b509b509b509b509b509b509b509b509b509b509b505091939597999b90929496989a50565b6000339050610160604051908101604052808681526020018273ffffffffffffffffffffffffffffffffffffffff1681526020018373ffffffffffffffffffffffffffffffffffffffff168152602001858152602001600081526020016000815260200184815260200160008152602001600081526020016000600581111561194557fe5b81526020016020604051908101604052806000815250815250600160008781526020019081526020016000206000820151816000015560208201518160010160006101000a81548173ffffffffffffffffffffffffffffffffffffffff021916908373ffffffffffffffffffffffffffffffffffffffff16021790555060408201518160020160006101000a81548173ffffffffffffffffffffffffffffffffffffffff021916908373ffffffffffffffffffffffffffffffffffffffff160217905550606082015181600301556080820151816004015560a0820151816005015560c0820151816006015560e0820151816007015561010082015181600801556101208201518160090160006101000a81548160ff02191690836005811115611a6b57fe5b021790555061014082015181600a019080519060200190611a8d929190611c8c565b509050507f4417acf5a11364eb84c530f6ab2810e948e5a200f115b561cd51d8f62e564d3585828587600160008b8152602001908152602001600020600a01604051808681526020018573ffffffffffffffffffffffffffffffffffffffff1673ffffffffffffffffffffffffffffffffffffffff16815260200184815260200183815260200180602001828103825283818154600181600116156101000203166002900481526020019150805460018160011615610100020316600290048015611b995780601f10611b6e57610100808354040283529160200191611b99565b820191906000526020600020905b815481529060010190602001808311611b7c57829003601f168201915b5050965050505050505060405180910390a15050505050565b50805460018160011615610100020316600290046000825580601f10611bd85750611bf7565b601f016020900490600052602060002090810190611bf69190611d0c565b5b50565b6101606040519081016040528060008152602001600073ffffffffffffffffffffffffffffffffffffffff168152602001600073ffffffffffffffffffffffffffffffffffffffff16815260200160008152602001600081526020016000815260200160008152602001600081526020016000815260200160006005811115611c7f57fe5b8152602001606081525090565b828054600181600116156101000203166002900490600052602060002090601f016020900481019282601f10611ccd57805160ff1916838001178555611cfb565b82800160010185558215611cfb579182015b82811115611cfa578251825591602001919060010190611cdf565b5b509050611d089190611d0c565b5090565b611d2e91905b80821115611d2a576000816000905550600101611d12565b5090565b905600a165627a7a723058202f756a65d8f8273a388e0c5cf414f62c163753a54527b97317d42a77e0b8d6c00029",
  "source": "pragma solidity ^0.4.23;\r\n\r\nimport \"./erc20/ERC20.sol\";\r\n\r\ncontract MobilityPlatform {\r\n\r\n    enum Status { OfferProposed, OfferAccepted, OfferDeclined, UsageStarted, UsageEnded, Paid }\r\n\r\n    ERC20 balanceBook;\r\n\r\n    constructor(ERC20 token) public {\r\n        balanceBook = token;\r\n    }\r\n\r\n    struct UsageRecord {\r\n        uint offerId;\r\n        address provider;\r\n        address user;\r\n        uint offerValidUntil;\r\n        uint serviceUsageStartTime;\r\n        uint serviceUsageEndTime;\r\n        uint distanceTravelled;\r\n        uint pricePerKm;\r\n        uint totalPrice;\r\n        Status status;\r\n        string hashv;\r\n    }\r\n\r\n    mapping(uint => UsageRecord) usageRecords;\r\n\r\n    function getUsageRecord(uint offerId) public view returns\r\n    (uint, address, address, uint, uint, uint, uint, uint, uint, Status, string) {\r\n        UsageRecord memory rec = usageRecords[offerId];\r\n\r\n        return (rec.offerId, rec.provider, rec.user, rec.offerValidUntil, rec.serviceUsageStartTime, rec.serviceUsageEndTime,\r\n        rec.distanceTravelled, rec.pricePerKm, rec.totalPrice, rec.status, rec.hashv);\r\n    }\r\n\r\n    function proposeServiceUsage(uint offerId, uint offerValidUntil, uint pricePerKm, address user) public {\r\n        address provider = msg.sender;\r\n        usageRecords[offerId] = UsageRecord(offerId, provider, user, offerValidUntil, 0, 0, pricePerKm, 0, 0, Status.OfferProposed, \"\");\r\n//        usageRecords[offerId].hashv = keccak256(usageRecords[offerId]));\r\n\r\n        emit ServiceUsageProposed(offerId, provider, pricePerKm, offerValidUntil, usageRecords[offerId].hashv);\r\n    }\r\n\r\n    function acceptProposedOffer(uint offerId) public {\r\n        Status expectedStatus = Status.OfferProposed;\r\n        address checkedAddress = usageRecords[offerId].user;\r\n        if (usageRecords[offerId].status != expectedStatus || checkedAddress != msg.sender) {\r\n            emit ContractChangeRejected(offerId, checkedAddress, msg.sender, usageRecords[offerId].status, expectedStatus);\r\n\r\n            // actually offer shall be rejected, but for test purposes we are accepting it, that's why in case\r\n            // the contact status is correct the processing is continued\r\n            if (usageRecords[offerId].status != expectedStatus) {\r\n                return;\r\n            }\r\n        }\r\n\r\n        if (usageRecords[offerId].user != msg.sender) {\r\n            emit OfferAcceptedForYou(offerId, usageRecords[offerId].user, msg.sender, usageRecords[offerId].provider);\r\n        }\r\n\r\n\r\n        usageRecords[offerId].status = Status.OfferAccepted;\r\n\r\n        emit ServiceUsageProposalAccepted(offerId);\r\n    }\r\n\r\n    function declineProposedOffer(uint offerId) public {\r\n        Status expectedStatus = Status.OfferProposed;\r\n        address checkedAddress = usageRecords[offerId].user;\r\n        if (usageRecords[offerId].status != expectedStatus || checkedAddress != msg.sender) {\r\n            emit ContractChangeRejected(offerId, checkedAddress, msg.sender, usageRecords[offerId].status, expectedStatus);\r\n            return;\r\n        }\r\n\r\n        usageRecords[offerId].status = Status.OfferDeclined;\r\n\r\n        emit ServiceUsageProposalDeclined(offerId);\r\n    }\r\n\r\n    function startServiceUsage(uint offerId, uint serviceUsageStartTime) public {\r\n        Status expectedStatus = Status.OfferAccepted;\r\n        address checkedAddress = usageRecords[offerId].provider;\r\n        if (usageRecords[offerId].status != expectedStatus || checkedAddress != msg.sender) {\r\n            emit ContractChangeRejected(offerId, checkedAddress, msg.sender, usageRecords[offerId].status, expectedStatus);\r\n            return;\r\n        }\r\n\r\n\r\n        usageRecords[offerId].status = Status.UsageStarted;\r\n        usageRecords[offerId].serviceUsageStartTime = serviceUsageStartTime;\r\n  //      usageRecords[offerId].hashv = keccak256(usageRecords[offerId]);\r\n\r\n        emit ServiceUsageStarted(offerId, serviceUsageStartTime, usageRecords[offerId].hashv);\r\n    }\r\n\r\n    function finishServiceUsage(uint offerId, uint serviceUsageEndTime, uint distanceTravelled) public {\r\n        Status expectedStatus = Status.UsageStarted;\r\n        address checkedAddress = usageRecords[offerId].provider;\r\n        if (usageRecords[offerId].status != expectedStatus || checkedAddress != msg.sender) {\r\n            emit ContractChangeRejected(offerId, checkedAddress, msg.sender, usageRecords[offerId].status, expectedStatus);\r\n            return;\r\n        }\r\n\r\n        usageRecords[offerId].status = Status.UsageEnded;\r\n        usageRecords[offerId].serviceUsageEndTime = serviceUsageEndTime;\r\n        usageRecords[offerId].distanceTravelled = distanceTravelled;\r\n//        usageRecords[offerId].hashv = keccak256(usageRecords[offerId]);\r\n\r\n        uint totalPrice = usageRecords[offerId].distanceTravelled * usageRecords[offerId].pricePerKm;\r\n        usageRecords[offerId].totalPrice = totalPrice;\r\n        emit ServiceUsageEnded(offerId, serviceUsageEndTime, distanceTravelled, totalPrice, usageRecords[offerId].hashv);\r\n\r\n        executePayment(offerId);\r\n    }\r\n\r\n    function executePayment(uint offerId) public {\r\n        Status expectedStatus = Status.UsageEnded;\r\n        address checkedAddress = usageRecords[offerId].provider;\r\n        if (usageRecords[offerId].status != expectedStatus || checkedAddress != msg.sender) {\r\n            emit ContractChangeRejected(offerId, checkedAddress, msg.sender, usageRecords[offerId].status, expectedStatus);\r\n            return;\r\n        }\r\n\r\n        uint price = usageRecords[offerId].totalPrice;\r\n\r\n        if (balanceBook.balanceOf(usageRecords[offerId].user) < price) {\r\n            emit PaymentFailedDueToUnsufficientFunds(offerId);\r\n            return;\r\n        }\r\n\r\n        balanceBook.transferFrom(usageRecords[offerId].user, usageRecords[offerId].provider, price);\r\n\r\n        usageRecords[offerId].status = Status.Paid;\r\n//        usageRecords[offerId].hashv = keccak256(usageRecords[offerId]);\r\n\r\n        emit ServiceUsagePayedUp(offerId, usageRecords[offerId].hashv);\r\n\r\n        delete usageRecords[offerId];\r\n    }\r\n\r\n\r\n /*\r\n    modifier verifyCall(uint offerId, address checkedAddr, Status expectedStatus) {\r\n        address checkedAddress = usageRecords[offerId].provider;\r\n        if (usageRecords[offerId].status != expectedStatus || checkedAddress != msg.sender) {\r\n            emit ContractChangeRejected(offerId, checkedAddress, msg.sender, usageRecords[offerId].status, expectedStatus);\r\n            return;\r\n        }\r\n        _;\r\n    }\r\n*/\r\n    event ServiceUsageProposed(uint offerId, address provider, uint pricePerKm, uint validUntil, string hashv);\r\n    event ServiceUsageProposalAccepted(uint offerId);\r\n    event ServiceUsageProposalDeclined(uint offerId);\r\n    event ServiceUsageStarted(uint offerId, uint serviceUsageStartTime, string hashv);\r\n    event ServiceUsageEnded(uint offerId, uint serviceUsageEndTime, uint distanceTravelled, uint serviceCost, string hashv);\r\n    event ServiceUsagePayedUp(uint offerId, string hashv);\r\n    event PaymentFailedDueToUnsufficientFunds(uint offerId);\r\n\r\n    // warning events\r\n    event OfferAcceptedForYou(uint offerId, address user, address acceptingaddress, address provider);\r\n\r\n    // error events\r\n    event ContractChangeRejected(uint offerId, address checkedAddr, address callingAddr, Status cState, Status expCState);\r\n}\r\n",
  "sourcePath": "C:\\dev\\blockchained-mobility-hack\\404-name-not-found\\backend\\contracts\\MobilityPlatform.sol",
  "compiler": {
    "name": "solc",
    "version": "0.4.24+commit.e67f0147.Emscripten.clang"
  },
  "schemaVersion": "2.0.1",
  "updatedAt": "2018-07-22T09:35:18.165Z"
}