{
  "contractName": "MobilityPlatform",
  "abi": [
    {
      "inputs": [],
      "payable": false,
      "stateMutability": "nonpayable",
      "type": "constructor"
    },
    {
      "anonymous": false,
      "inputs": [
        {
          "indexed": false,
          "name": "offerId",
          "type": "uint256"
        }
      ],
      "name": "ServiceUsageProposalSaved",
      "type": "event"
    },
    {
      "constant": false,
      "inputs": [
        {
          "name": "offerId",
          "type": "uint256"
        },
        {
          "name": "timeStarted",
          "type": "uint256"
        },
        {
          "name": "proposedPrice",
          "type": "uint256"
        },
        {
          "name": "user",
          "type": "address"
        }
      ],
      "name": "proposeServiceUsage",
      "outputs": [],
      "payable": false,
      "stateMutability": "nonpayable",
      "type": "function"
    }
  ],
  "bytecode": "0x608060405234801561001057600080fd5b506107d06001600073de0b295669a9fd93d5f28d9ec85e40f4cb697bae73ffffffffffffffffffffffffffffffffffffffff1673ffffffffffffffffffffffffffffffffffffffff168152602001908152602001600020819055506102898061007a6000396000f300608060405260043610610041576000357c0100000000000000000000000000000000000000000000000000000000900463ffffffff168063dae5377414610046575b600080fd5b34801561005257600080fd5b506100a5600480360381019080803590602001909291908035906020019092919080359060200190929190803573ffffffffffffffffffffffffffffffffffffffff1690602001909291905050506100a7565b005b6000339050610100604051908101604052808681526020018273ffffffffffffffffffffffffffffffffffffffff1681526020018373ffffffffffffffffffffffffffffffffffffffff16815260200185815260200160008152602001848152602001600081526020016001600481111561011e57fe5b8152506000808781526020019081526020016000206000820151816000015560208201518160010160006101000a81548173ffffffffffffffffffffffffffffffffffffffff021916908373ffffffffffffffffffffffffffffffffffffffff16021790555060408201518160020160006101000a81548173ffffffffffffffffffffffffffffffffffffffff021916908373ffffffffffffffffffffffffffffffffffffffff160217905550606082015181600301556080820151816004015560a0820151816005015560c0820151816006015560e08201518160070160006101000a81548160ff0219169083600481111561021757fe5b02179055509050507fd7c70b0234dfd76038bbdc21681ab50e2b841c906424e7e6256238e4ab3c67d6856040518082815260200191505060405180910390a150505050505600a165627a7a723058206af2f54f255dbdb32ba1a43bdd7fc793b32c179dad665e89e4f3a88a18ef2d4b0029",
  "source": "pragma solidity ^0.4.23;\n\ncontract MobilityPlatform {\n\n    enum Status {Booked, Proposed, Accepted, Paid, OfferDeclined}\n\nconstructor() public {\nuserAccountBalance[0xde0B295669a9FD93d5F28D9Ec85E40f4cb697BAe] = 2000; //Demo user account\n}\nstruct UsageRecord {\nuint offerId;\naddress provider;\naddress user;\nuint timeStarted;\nuint timeFinished;\nuint proposedPrice;\nuint paidPrice;\nStatus status;\n}\n\nmapping(uint => UsageRecord) usageRecords;\n\nmapping(address => uint) userAccountBalance;\n\nmapping(address => uint) providerAccountBalance;\n\nfunction proposeServiceUsage(uint offerId, uint timeStarted, uint proposedPrice, address user) public {\naddress provider = msg.sender;\nusageRecords[offerId] = UsageRecord(offerId, provider, user, timeStarted, 0, proposedPrice, 0, Status.Proposed);\nemit ServiceUsageProposalSaved(offerId);\n}\n\n//function acceptService(uint offerId) public {\n//}\n//function getUserBalance() public view  returns (uint balance){\n//balance = userAccountBalance[msg.sender];\n//}\n//function finishServiceUsage(uint serviceId, uint timeFinished) public{\n//}\n//function executePayment() public{\n//\n//}\n\nevent ServiceUsageProposalSaved(uint offerId);\n}\n\n",
  "sourcePath": "/Users/rafal/Projects/404-truffle/contracts/Mobility.sol",
  "compiler": {
    "name": "solc",
    "version": "0.4.24+commit.e67f0147.Emscripten.clang"
  },
  "schemaVersion": "2.0.1",
  "updatedAt": "2018-07-21T15:20:31.049Z"
}