{
  "contractName": "MobilityPlatform",
  "abi": [
    {
      "inputs": [],
      "payable": false,
      "stateMutability": "nonpayable",
      "type": "constructor"
    },
    {
      "anonymous": false,
      "inputs": [
        {
          "indexed": false,
          "name": "offerId",
          "type": "uint256"
        },
        {
          "indexed": false,
          "name": "provider",
          "type": "address"
        },
        {
          "indexed": false,
          "name": "pricePerKm",
          "type": "uint256"
        },
        {
          "indexed": false,
          "name": "validUntil",
          "type": "uint256"
        },
        {
          "indexed": false,
          "name": "hashv",
          "type": "string"
        }
      ],
      "name": "ServiceUsageProposed",
      "type": "event"
    },
    {
      "anonymous": false,
      "inputs": [
        {
          "indexed": false,
          "name": "offerId",
          "type": "uint256"
        }
      ],
      "name": "ServiceUsageProposalAccepted",
      "type": "event"
    },
    {
      "anonymous": false,
      "inputs": [
        {
          "indexed": false,
          "name": "offerId",
          "type": "uint256"
        }
      ],
      "name": "ServiceUsageProposalDeclined",
      "type": "event"
    },
    {
      "anonymous": false,
      "inputs": [
        {
          "indexed": false,
          "name": "offerId",
          "type": "uint256"
        },
        {
          "indexed": false,
          "name": "serviceUsageStartTime",
          "type": "uint256"
        },
        {
          "indexed": false,
          "name": "hashv",
          "type": "string"
        }
      ],
      "name": "ServiceUsageStarted",
      "type": "event"
    },
    {
      "anonymous": false,
      "inputs": [
        {
          "indexed": false,
          "name": "offerId",
          "type": "uint256"
        },
        {
          "indexed": false,
          "name": "serviceUsageEndTime",
          "type": "uint256"
        },
        {
          "indexed": false,
          "name": "distanceTravelled",
          "type": "uint256"
        },
        {
          "indexed": false,
          "name": "serviceCost",
          "type": "uint256"
        },
        {
          "indexed": false,
          "name": "hashv",
          "type": "string"
        }
      ],
      "name": "ServiceUsageEnded",
      "type": "event"
    },
    {
      "anonymous": false,
      "inputs": [
        {
          "indexed": false,
          "name": "offerId",
          "type": "uint256"
        },
        {
          "indexed": false,
          "name": "hashv",
          "type": "string"
        }
      ],
      "name": "ServiceUsagePayedUp",
      "type": "event"
    },
    {
      "anonymous": false,
      "inputs": [
        {
          "indexed": false,
          "name": "offerId",
          "type": "uint256"
        }
      ],
      "name": "PaymentFailedDueToUnsufficientFunds",
      "type": "event"
    },
    {
      "anonymous": false,
      "inputs": [
        {
          "indexed": false,
          "name": "offerId",
          "type": "uint256"
        }
      ],
      "name": "PaymentFailedDueToBalanceOverflow",
      "type": "event"
    },
    {
      "constant": true,
      "inputs": [
        {
          "name": "offerId",
          "type": "uint256"
        }
      ],
      "name": "getUsageRecord",
      "outputs": [
        {
          "name": "",
          "type": "uint256"
        },
        {
          "name": "",
          "type": "address"
        },
        {
          "name": "",
          "type": "address"
        },
        {
          "name": "",
          "type": "uint256"
        },
        {
          "name": "",
          "type": "uint256"
        },
        {
          "name": "",
          "type": "uint256"
        },
        {
          "name": "",
          "type": "uint256"
        },
        {
          "name": "",
          "type": "uint256"
        },
        {
          "name": "",
          "type": "uint256"
        },
        {
          "name": "",
          "type": "uint8"
        },
        {
          "name": "",
          "type": "string"
        }
      ],
      "payable": false,
      "stateMutability": "view",
      "type": "function"
    },
    {
      "constant": false,
      "inputs": [
        {
          "name": "offerId",
          "type": "uint256"
        },
        {
          "name": "offerValidUntil",
          "type": "uint256"
        },
        {
          "name": "pricePerKm",
          "type": "uint256"
        },
        {
          "name": "user",
          "type": "address"
        }
      ],
      "name": "proposeServiceUsage",
      "outputs": [],
      "payable": false,
      "stateMutability": "nonpayable",
      "type": "function"
    },
    {
      "constant": false,
      "inputs": [
        {
          "name": "offerId",
          "type": "uint256"
        }
      ],
      "name": "acceptProposedOffer",
      "outputs": [],
      "payable": false,
      "stateMutability": "nonpayable",
      "type": "function"
    },
    {
      "constant": false,
      "inputs": [
        {
          "name": "offerId",
          "type": "uint256"
        }
      ],
      "name": "declineService",
      "outputs": [],
      "payable": false,
      "stateMutability": "nonpayable",
      "type": "function"
    },
    {
      "constant": false,
      "inputs": [
        {
          "name": "offerId",
          "type": "uint256"
        },
        {
          "name": "serviceUsageStartTime",
          "type": "uint256"
        }
      ],
      "name": "startServiceUsage",
      "outputs": [],
      "payable": false,
      "stateMutability": "nonpayable",
      "type": "function"
    },
    {
      "constant": false,
      "inputs": [
        {
          "name": "offerId",
          "type": "uint256"
        },
        {
          "name": "serviceUsageEndTime",
          "type": "uint256"
        },
        {
          "name": "distanceTravelled",
          "type": "uint256"
        }
      ],
      "name": "finishServiceUsage",
      "outputs": [],
      "payable": false,
      "stateMutability": "nonpayable",
      "type": "function"
    },
    {
      "constant": false,
      "inputs": [
        {
          "name": "offerId",
          "type": "uint256"
        }
      ],
      "name": "executePayment",
      "outputs": [],
      "payable": false,
      "stateMutability": "nonpayable",
      "type": "function"
    }
  ],
  "bytecode": "0x608060405234801561001057600080fd5b506107d06001600073de0b295669a9fd93d5f28d9ec85e40f4cb697bae73ffffffffffffffffffffffffffffffffffffffff1673ffffffffffffffffffffffffffffffffffffffff168152602001908152602001600020819055506116c88061007a6000396000f300608060405260043610610083576000357c0100000000000000000000000000000000000000000000000000000000900463ffffffff168063162a0cf814610088578063304cb0ca146100b55780633556d530146100e25780634da561ce1461012357806357b6217c1461015057806393c0ad9b14610187578063dae53774146102d9575b600080fd5b34801561009457600080fd5b506100b36004803603810190808035906020019092919050505061033a565b005b3480156100c157600080fd5b506100e060048036038101908080359060200190929190505050610931565b005b3480156100ee57600080fd5b50610121600480360381019080803590602001909291908035906020019092919080359060200190929190505050610a58565b005b34801561012f57600080fd5b5061014e60048036038101908080359060200190929190505050610cc0565b005b34801561015c57600080fd5b506101856004803603810190808035906020019092919080359060200190929190505050610de7565b005b34801561019357600080fd5b506101b260048036038101908080359060200190929190505050610fcf565b604051808c81526020018b73ffffffffffffffffffffffffffffffffffffffff1673ffffffffffffffffffffffffffffffffffffffff1681526020018a73ffffffffffffffffffffffffffffffffffffffff1673ffffffffffffffffffffffffffffffffffffffff16815260200189815260200188815260200187815260200186815260200185815260200184815260200183600581111561025057fe5b60ff16815260200180602001828103825283818151815260200191508051906020019080838360005b83811015610294578082015181840152602081019050610279565b50505050905090810190601f1680156102c15780820380516001836020036101000a031916815260200191505b509c5050505050505050505050505060405180910390f35b3480156102e557600080fd5b50610338600480360381019080803590602001909291908035906020019092919080359060200190929190803573ffffffffffffffffffffffffffffffffffffffff16906020019092919050505061122d565b005b60006004600581111561034957fe5b60008084815260200190815260200160002060090160009054906101000a900460ff16600581111561037757fe5b14151561038357600080fd5b3373ffffffffffffffffffffffffffffffffffffffff1660008084815260200190815260200160002060010160009054906101000a900473ffffffffffffffffffffffffffffffffffffffff1673ffffffffffffffffffffffffffffffffffffffff161415801561045557503373ffffffffffffffffffffffffffffffffffffffff1660008084815260200190815260200160002060020160009054906101000a900473ffffffffffffffffffffffffffffffffffffffff1673ffffffffffffffffffffffffffffffffffffffff1614155b1561045f57600080fd5b600080838152602001908152602001600020600801549050806001600080600086815260200190815260200160002060020160009054906101000a900473ffffffffffffffffffffffffffffffffffffffff1673ffffffffffffffffffffffffffffffffffffffff1673ffffffffffffffffffffffffffffffffffffffff16815260200190815260200160002054101561052f577fbecfcb276c2bd23fc334482e947146369543ad085b3c4dd4031b33570ae8c27a826040518082815260200191505060405180910390a161092d565b806002600080600086815260200190815260200160002060010160009054906101000a900473ffffffffffffffffffffffffffffffffffffffff1673ffffffffffffffffffffffffffffffffffffffff1673ffffffffffffffffffffffffffffffffffffffff16815260200190815260200160002054016002600080600086815260200190815260200160002060010160009054906101000a900473ffffffffffffffffffffffffffffffffffffffff1673ffffffffffffffffffffffffffffffffffffffff1673ffffffffffffffffffffffffffffffffffffffff16815260200190815260200160002054101561065d577fbb552fbb346b692c1bfa57ae479996c2cfee47adbf4a318425adffc1fa59ce03826040518082815260200191505060405180910390a161092d565b806001600080600086815260200190815260200160002060020160009054906101000a900473ffffffffffffffffffffffffffffffffffffffff1673ffffffffffffffffffffffffffffffffffffffff1673ffffffffffffffffffffffffffffffffffffffff16815260200190815260200160002060008282540392505081905550806002600080600086815260200190815260200160002060010160009054906101000a900473ffffffffffffffffffffffffffffffffffffffff1673ffffffffffffffffffffffffffffffffffffffff1673ffffffffffffffffffffffffffffffffffffffff16815260200190815260200160002060008282540192505081905550600560008084815260200190815260200160002060090160006101000a81548160ff0219169083600581111561079357fe5b02179055507f89b18861f4686dc97f69ec1b09ed387ece5f182299d9fdeab95d50a88f40cb7382600080858152602001908152602001600020600a01604051808381526020018060200182810382528381815460018160011615610100020316600290048152602001915080546001816001161561010002031660029004801561085e5780601f106108335761010080835404028352916020019161085e565b820191906000526020600020905b81548152906001019060200180831161084157829003601f168201915b5050935050505060405180910390a16000808381526020019081526020016000206000808201600090556001820160006101000a81549073ffffffffffffffffffffffffffffffffffffffff02191690556002820160006101000a81549073ffffffffffffffffffffffffffffffffffffffff02191690556003820160009055600482016000905560058201600090556006820160009055600782016000905560088201600090556009820160006101000a81549060ff0219169055600a8201600061092a919061151d565b50505b5050565b6000600581111561093e57fe5b60008083815260200190815260200160002060090160009054906101000a900460ff16600581111561096c57fe5b14151561097857600080fd5b3373ffffffffffffffffffffffffffffffffffffffff1660008083815260200190815260200160002060020160009054906101000a900473ffffffffffffffffffffffffffffffffffffffff1673ffffffffffffffffffffffffffffffffffffffff161415156109e757600080fd5b600160008083815260200190815260200160002060090160006101000a81548160ff02191690836005811115610a1957fe5b02179055507f2cacf31f4b711cef0a5037eb7d6e30065887ee390b9657416206701bf017ee34816040518082815260200191505060405180910390a150565b600060036005811115610a6757fe5b60008086815260200190815260200160002060090160009054906101000a900460ff166005811115610a9557fe5b141515610aa157600080fd5b3373ffffffffffffffffffffffffffffffffffffffff1660008086815260200190815260200160002060010160009054906101000a900473ffffffffffffffffffffffffffffffffffffffff1673ffffffffffffffffffffffffffffffffffffffff16141515610b1057600080fd5b600460008086815260200190815260200160002060090160006101000a81548160ff02191690836005811115610b4257fe5b021790555082600080868152602001908152602001600020600501819055508160008086815260200190815260200160002060060181905550600080858152602001908152602001600020600701546000808681526020019081526020016000206006015402905080600080868152602001908152602001600020600801819055507f18a769dad965508202f89c55c4da08023a1d11baa7db791b992a10c647930b33848484846000808a8152602001908152602001600020600a016040518086815260200185815260200184815260200183815260200180602001828103825283818154600181600116156101000203166002900481526020019150805460018160011615610100020316600290048015610c9f5780601f10610c7457610100808354040283529160200191610c9f565b820191906000526020600020905b815481529060010190602001808311610c8257829003601f168201915b5050965050505050505060405180910390a1610cba8461033a565b50505050565b60006005811115610ccd57fe5b60008083815260200190815260200160002060090160009054906101000a900460ff166005811115610cfb57fe5b141515610d0757600080fd5b3373ffffffffffffffffffffffffffffffffffffffff1660008083815260200190815260200160002060020160009054906101000a900473ffffffffffffffffffffffffffffffffffffffff1673ffffffffffffffffffffffffffffffffffffffff16141515610d7657600080fd5b600260008083815260200190815260200160002060090160006101000a81548160ff02191690836005811115610da857fe5b02179055507fc33fe4729d1aacd9a845934cf37da64336f08b494288ec43e44b4777cf2ca435816040518082815260200191505060405180910390a150565b60016005811115610df457fe5b60008084815260200190815260200160002060090160009054906101000a900460ff166005811115610e2257fe5b141515610e2e57600080fd5b3373ffffffffffffffffffffffffffffffffffffffff1660008084815260200190815260200160002060010160009054906101000a900473ffffffffffffffffffffffffffffffffffffffff1673ffffffffffffffffffffffffffffffffffffffff16141515610e9d57600080fd5b600360008084815260200190815260200160002060090160006101000a81548160ff02191690836005811115610ecf57fe5b021790555080600080848152602001908152602001600020600401819055507f9193931fa5a3e3159fad1f0107304f3fa0bf3e382b0b2472c7ae2920a491e4d38282600080868152602001908152602001600020600a016040518084815260200183815260200180602001828103825283818154600181600116156101000203166002900481526020019150805460018160011615610100020316600290048015610fbb5780601f10610f9057610100808354040283529160200191610fbb565b820191906000526020600020905b815481529060010190602001808311610f9e57829003601f168201915b505094505050505060405180910390a15050565b6000806000806000806000806000806060610fe8611565565b6000808e81526020019081526020016000206101606040519081016040529081600082015481526020016001820160009054906101000a900473ffffffffffffffffffffffffffffffffffffffff1673ffffffffffffffffffffffffffffffffffffffff1673ffffffffffffffffffffffffffffffffffffffff1681526020016002820160009054906101000a900473ffffffffffffffffffffffffffffffffffffffff1673ffffffffffffffffffffffffffffffffffffffff1673ffffffffffffffffffffffffffffffffffffffff1681526020016003820154815260200160048201548152602001600582015481526020016006820154815260200160078201548152602001600882015481526020016009820160009054906101000a900460ff16600581111561111757fe5b600581111561112257fe5b8152602001600a82018054600181600116156101000203166002900480601f0160208091040260200160405190810160405280929190818152602001828054600181600116156101000203166002900480156111bf5780601f10611194576101008083540402835291602001916111bf565b820191906000526020600020905b8154815290600101906020018083116111a257829003601f168201915b5050505050815250509050806000015181602001518260400151836060015184608001518560a001518660c001518760e001518861010001518961012001518a61014001518090509b509b509b509b509b509b509b509b509b509b509b505091939597999b90929496989a50565b6000339050610160604051908101604052808681526020018273ffffffffffffffffffffffffffffffffffffffff1681526020018373ffffffffffffffffffffffffffffffffffffffff16815260200185815260200160008152602001600081526020018481526020016000815260200160008152602001600060058111156112b257fe5b815260200160206040519081016040528060008152508152506000808781526020019081526020016000206000820151816000015560208201518160010160006101000a81548173ffffffffffffffffffffffffffffffffffffffff021916908373ffffffffffffffffffffffffffffffffffffffff16021790555060408201518160020160006101000a81548173ffffffffffffffffffffffffffffffffffffffff021916908373ffffffffffffffffffffffffffffffffffffffff160217905550606082015181600301556080820151816004015560a0820151816005015560c0820151816006015560e0820151816007015561010082015181600801556101208201518160090160006101000a81548160ff021916908360058111156113d757fe5b021790555061014082015181600a0190805190602001906113f99291906115f7565b509050507f4417acf5a11364eb84c530f6ab2810e948e5a200f115b561cd51d8f62e564d35858285876000808b8152602001908152602001600020600a01604051808681526020018573ffffffffffffffffffffffffffffffffffffffff1673ffffffffffffffffffffffffffffffffffffffff168152602001848152602001838152602001806020018281038252838181546001816001161561010002031660029004815260200191508054600181600116156101000203166002900480156115045780601f106114d957610100808354040283529160200191611504565b820191906000526020600020905b8154815290600101906020018083116114e757829003601f168201915b5050965050505050505060405180910390a15050505050565b50805460018160011615610100020316600290046000825580601f106115435750611562565b601f0160209004906000526020600020908101906115619190611677565b5b50565b6101606040519081016040528060008152602001600073ffffffffffffffffffffffffffffffffffffffff168152602001600073ffffffffffffffffffffffffffffffffffffffff168152602001600081526020016000815260200160008152602001600081526020016000815260200160008152602001600060058111156115ea57fe5b8152602001606081525090565b828054600181600116156101000203166002900490600052602060002090601f016020900481019282601f1061163857805160ff1916838001178555611666565b82800160010185558215611666579182015b8281111561166557825182559160200191906001019061164a565b5b5090506116739190611677565b5090565b61169991905b8082111561169557600081600090555060010161167d565b5090565b905600a165627a7a72305820e613e7998ea87f9803b9f377f13d388eda5cea34a3ef479e2dcefe8bde896f3f0029",
  "source": "pragma solidity ^0.4.23;\r\n\r\ncontract MobilityPlatform {\r\n\r\n    enum Status { OfferProposed, OfferAccepted, OfferDeclined, UsageStarted, UsageEnded, Paid }\r\n\r\n    constructor() public {\r\n        userAccountBalance[0xde0B295669a9FD93d5F28D9Ec85E40f4cb697BAe] = 2000; //Demo user account\r\n    }\r\n    struct UsageRecord {\r\n        uint offerId;\r\n        address provider;\r\n        address user;\r\n        uint offerValidUntil;\r\n        uint serviceUsageStartTime;\r\n        uint serviceUsageEndTime;\r\n        uint distanceTravelled;\r\n        uint pricePerKm;\r\n        uint totalPrice;\r\n        Status status;\r\n        string hashv;\r\n    }\r\n            \r\n    mapping(uint => UsageRecord) usageRecords;\r\n\r\n    mapping(address => uint) userAccountBalance;\r\n   \r\n    mapping(address => uint) providerAccountBalance;\r\n\r\n    function getUsageRecord(uint offerId) public view returns \r\n    (uint, address, address, uint, uint, uint, uint, uint, uint, Status, string) {\r\n        UsageRecord memory rec = usageRecords[offerId];\r\n\r\n        return (rec.offerId, rec.provider, rec.user, rec.offerValidUntil, rec.serviceUsageStartTime, rec.serviceUsageEndTime,\r\n        rec.distanceTravelled, rec.pricePerKm, rec.totalPrice, rec.status, rec.hashv);\r\n    }\r\n\r\n    function proposeServiceUsage(uint offerId, uint offerValidUntil, uint pricePerKm, address user) public {\r\n        address provider = msg.sender;\r\n        usageRecords[offerId] = UsageRecord(offerId, provider, user, offerValidUntil, 0, 0, pricePerKm, 0, 0, Status.OfferProposed, \"\");\r\n//        usageRecords[offerId].hashv = keccak256(usageRecords[offerId]));\r\n\r\n        emit ServiceUsageProposed(offerId, provider, pricePerKm, offerValidUntil, usageRecords[offerId].hashv);\r\n    }\r\n    \r\n    function acceptProposedOffer(uint offerId) public {\r\n        if (usageRecords[offerId].status != Status.OfferProposed) revert();\r\n        if (usageRecords[offerId].user != msg.sender) revert();\r\n        \r\n        usageRecords[offerId].status = Status.OfferAccepted;\r\n    \r\n        emit ServiceUsageProposalAccepted(offerId);\r\n    }\r\n\r\n    function declineService(uint offerId) public {\r\n        if (usageRecords[offerId].status != Status.OfferProposed) revert();\r\n        if (usageRecords[offerId].user != msg.sender) revert();\r\n        \r\n        usageRecords[offerId].status = Status.OfferDeclined;\r\n    \r\n        emit ServiceUsageProposalDeclined(offerId);\r\n    }\r\n\r\n    function startServiceUsage(uint offerId, uint serviceUsageStartTime) public {\r\n        if (usageRecords[offerId].status != Status.OfferAccepted) revert();\r\n        if (usageRecords[offerId].provider != msg.sender) revert();\r\n        \r\n        usageRecords[offerId].status = Status.UsageStarted;\r\n        usageRecords[offerId].serviceUsageStartTime = serviceUsageStartTime;\r\n  //      usageRecords[offerId].hashv = keccak256(usageRecords[offerId]);\r\n\r\n        emit ServiceUsageStarted(offerId, serviceUsageStartTime, usageRecords[offerId].hashv);\r\n    }\r\n\r\n    function finishServiceUsage(uint offerId, uint serviceUsageEndTime, uint distanceTravelled) public {\r\n        if (usageRecords[offerId].status != Status.UsageStarted) revert();\r\n        if (usageRecords[offerId].provider != msg.sender) revert();\r\n   \r\n        usageRecords[offerId].status = Status.UsageEnded;\r\n        usageRecords[offerId].serviceUsageEndTime = serviceUsageEndTime;\r\n        usageRecords[offerId].distanceTravelled = distanceTravelled;\r\n//        usageRecords[offerId].hashv = keccak256(usageRecords[offerId]);\r\n         \r\n        uint totalPrice = usageRecords[offerId].distanceTravelled * usageRecords[offerId].pricePerKm;\r\n        usageRecords[offerId].totalPrice = totalPrice;\r\n        emit ServiceUsageEnded(offerId, serviceUsageEndTime, distanceTravelled, totalPrice, usageRecords[offerId].hashv);\r\n\r\n        executePayment(offerId);\r\n    }\r\n\r\n    function executePayment(uint offerId) public {\r\n        if (usageRecords[offerId].status != Status.UsageEnded) revert();\r\n        if (usageRecords[offerId].provider != msg.sender && usageRecords[offerId].user != msg.sender) revert();\r\n        \r\n        uint price = usageRecords[offerId].totalPrice;\r\n        if (userAccountBalance[usageRecords[offerId].user] < price) {\r\n            emit PaymentFailedDueToUnsufficientFunds(offerId);\r\n            return;\r\n        }\r\n        if (providerAccountBalance[usageRecords[offerId].provider] < \r\n            providerAccountBalance[usageRecords[offerId].provider] + price) {\r\n            \r\n            emit PaymentFailedDueToBalanceOverflow(offerId);\r\n            return;\r\n        }\r\n\r\n        userAccountBalance[usageRecords[offerId].user] -= price;\r\n        providerAccountBalance[usageRecords[offerId].provider] += price;\r\n        usageRecords[offerId].status = Status.Paid;\r\n//        usageRecords[offerId].hashv = keccak256(usageRecords[offerId]);\r\n\r\n        emit ServiceUsagePayedUp(offerId, usageRecords[offerId].hashv);\r\n\r\n        delete usageRecords[offerId];\r\n    }\r\n\r\n    event ServiceUsageProposed(uint offerId, address provider, uint pricePerKm, uint validUntil, string hashv);\r\n    event ServiceUsageProposalAccepted(uint offerId);\r\n    event ServiceUsageProposalDeclined(uint offerId);\r\n    event ServiceUsageStarted(uint offerId, uint serviceUsageStartTime, string hashv);\r\n    event ServiceUsageEnded(uint offerId, uint serviceUsageEndTime, uint distanceTravelled, uint serviceCost, string hashv);\r\n    event ServiceUsagePayedUp(uint offerId, string hashv);\r\n    event PaymentFailedDueToUnsufficientFunds(uint offerId);\r\n    event PaymentFailedDueToBalanceOverflow(uint offerId);\r\n}\r\n\r\n",
  "sourcePath": "C:\\dev\\blockchained-mobility-hack\\404-name-not-found\\backend\\contracts\\MobilityPlatform.sol",
  "compiler": {
    "name": "solc",
    "version": "0.4.24+commit.e67f0147.Emscripten.clang"
  },
  "schemaVersion": "2.0.1",
  "updatedAt": "2018-07-21T23:11:26.852Z"
}